:040000000DEF00F010
:0400080070EF20F085
:06001800FF00E7EF1CF001
:101500000053657276696365204D6F64652044659C
:10151000636F646572204C6F636B205265717565F3
:10152000737465642073656E7420746F2025642065
:101530006C6F636B696E6720616464726573733D81
:101540002564004356204163636573732053686FBD
:10155000727420466F726D20756E646566696E6583
:10156000642076616C75652025782C2069676E6F24
:1015700072696E67002564206973202563402564C5
:101580002F256420466E3D25642564256425642549
:101590006425642564256425642564256425642503
:1015A000640D0A00506572663A20256C752F25750A
:1015B0002F2575202825752C202575290D0A000D4D
:1015C0000A53797374656D20426F6F740D0A006C55
:0F15D00058006C64006C69006C75006C7800004A
:1015E000E107E105D8B4120001D01200020EE119A2
:1015F000D8A406D0BF29D8A403D0C051D8B41200B3
:10160000020EE119D8A40BD0BF51D8A408D0C05104
:10161000D8A405D0F0EC12F07EEC1EF01200020E01
:10162000E119D8A412D0BF51D8A40FD0C051C10B1A
:10163000C10AD8A40AD0000EE26FE2C505F5F4C5D0
:1016400006F5E351ABEC1CF01200020EE119D8B420
:10165000BFBF4AD0C051C00B400AD8A445D0BFC5B7
:101660009BF57F0E9B179B51A56FA66BA551D919B2
:10167000BCE1A651DA19D8A41200C0BB04D0000EF8
:101680009F6F420E03D0000E9F6F460E9E6F9EC549
:10169000F4F5DDA30FD01C0EE36FC0511F0B9B6F41
:1016A0009C6B200E9B25D96E060E9C21DA6EDF50B6
:1016B000E26F12D00E0EE36FC0510F0B9B6F9C6B4D
:1016C000200E9B25D96E060E9C21DA6EDF50E26F4C
:1016D000C0390F0B010BAC6FE2C505F5F4C506F57B
:1016E000E351ABEC1CF01200BF51C00BC00AD8A4F0
:1016F00009D0BF513F0B9B6FC051A56F9BC5A6F58D
:10170000020E0FD0BF51C00B800AD8B4F2D7BFC5AC
:101710009BF5C00E9B17D8A406D0BFC5A5F5A66B38
:10172000010EA26F03D0BF29D8B41200A551D91958
:1017300004E1A651DA19D8B404D0A551A611D8A451
:101740001200A2C5A9F5DDD3BF0EA925D96EDA6AAC
:10175000050EDA22DF509B6FE00E9B17D8A457D0FE
:10176000BF0EA925D96EDA6A050EDA22DFB84CD091
:10177000BF0EA925D96EDA6A050EDA22DF509B6FFB
:101780000E0E9B17D8A405D0F0EC12F07EEC1EF0E4
:101790003BD0BF0EA925D96EDA6A050EDA22DF50DA
:1017A0000E0BE806D8B430D0BF0EA925D96EDA6A80
:1017B000050EDA22DF500E0B060AD8A425D0BF0E84
:1017C000A925D96EDA6A050EDA22DFA00FD0000E45
:1017D000086E1D0E076E000E066E1D0E056E37ECB0
:1017E00020F02009096E43EC20F00ED0000E086EA8
:1017F0001D0E076E000E066E1D0E056E37EC20F0F6
:10180000DF0B096E43EC20F00501A92B78D3BF0E46
:10181000A925D96EDA6A050EDA22DF50E00B200A1C
:10182000D8A449D0BF0EA925D96EDA6A050EDA22EE
:10183000DF501F0B1F0AD8A425D0C00EA925D96ED2
:10184000DA6A050EDA22DFBE04D0000EA16F520E56
:1018500003D0000EA16F460EA06FA0C5F4F5800E58
:10186000E36FC00EA925D96EDA6A050EDA22DF50C1
:101870007F0BE26FE2C505F5F4C506F5E351ABEC6D
:101880001CF0C2D7BF0EA925D96EDA6A050EDA227E
:10189000DF501F0B1E0AD8B4B7D7BF0EA925D96ECB
:1018A000DA6A050EDA22DF501F0B1D0AD8A4ACD766
:1018B000020E05013DD1BF0EA925D96EDA6A050ECB
:1018C000DA22DF50E00B400AD8A41ED0520EF46F8B
:1018D0001C0EE36FBF0EA925D96EDA6A050EDA2257
:1018E000DF501F0B9B6F9C6B200E9B25D96E060E45
:1018F0009C21DA6EDF50E26FE2C505F5F4C506F50E
:10190000E351ABEC1CF0FBD2BF0EA925D96EDA6A0D
:10191000050EDA22DF50E00B600AD8A41ED0460E76
:10192000F46F1C0EE36FBF0EA925D96EDA6A050E9F
:10193000DA22DF501F0B9B6F9C6B200E9B25D96E0C
:10194000060E9C21DA6EDF50E26FE2C505F5F4C5A4
:1019500006F5E351ABEC1CF0D2D2BF0EA925D96E2F
:10196000DA6A050EDA22DF50E00B800AD8A442D0F2
:10197000BF0EA925D96EDA6A050EDA22DF509B6FF9
:101980009B390F0B010BAC6FBF0EA925D96EDA6A1C
:10199000050EDA22DF50010BAD6FBF0EA925D96EFF
:1019A000DA6A050EDA22DF509B6FD8909B31010B6B
:1019B000AE6FBF0EA925D96EDA6A050EDA22DF50A6
:1019C0009B6FD8909B33D8909B31010BAF6FBF0EAC
:1019D000A925D96EDA6A050EDA22DF509B6FD890FE
:1019E0009B33D8909B33D8909B31010BB06FF3ECB5
:1019F0001DF085D2BF0EA925D96EDA6A050EDA224E
:101A0000DF50E00BA00AD8A470D0BF0EA925D96E74
:101A1000DA6A050EDA22DFA834D0BF0EA925D96E06
:101A2000DA6A050EDA22DF50010BB16FBF0EA9256D
:101A3000D96EDA6A050EDA22DF509B6FD8909B319F
:101A4000010BB26FBF0EA925D96EDA6A050EDA2234
:101A5000DF509B6FD8909B33D8909B31010BB36FB5
:101A6000BF0EA925D96EDA6A050EDA22DF509B6F08
:101A7000D8909B33D8909B33D8909B31010BB46F97
:101A8000B6D7BF0EA925D96EDA6A050EDA22DF5065
:101A9000010BB56FBF0EA925D96EDA6A050EDA22E1
:101AA000DF509B6FD8909B31010BB66FBF0EA925FD
:101AB000D96EDA6A050EDA22DF509B6FD8909B331D
:101AC000D8909B31010BB76FBF0EA925D96EDA6A8A
:101AD000050EDA22DF509B6FD8909B33D8909B3352
:101AE000D8909B31010BB86F82D7BF0EA925D96E54
:101AF000DA6A050EDA22DF50E00BC00AD8A47ED0E5
:101B0000BF0EA925D96EDA6A050EDA22DF509B6F67
:101B10001F0E9B17D8B4CCD6BF0EA925D96EDA6A92
:101B2000050EDA22DF501F0BE806D8A403D0030EFF
:101B3000A927E5D1BF0EA925D96EDA6A050EDA22EA
:101B4000DF501F0B020AD8B4B3D6BF0EA925D96E39
:101B5000DA6A050EDA22DF501F0B1D0AD8B454D6FC
:101B6000BF0EA925D96EDA6A050EDA22DF501F0BE7
:101B70001E0AD8B449D6BF0EA925D96EDA6A050E59
:101B8000DA22DF501F0B1F0AD8B43ED6BF0EA9259C
:101B9000D96EDA6A050EDA22DF501F0B180AD8B4A4
:101BA00033D6BF0EA925D96EDA6A050EDA22DF50C8
:101BB0001F0B190AD8B428D6BF0EA925D96EDA6A28
:101BC000050EDA22DF501F0B1C0AD8B41DD6BF0E3B
:101BD000A925D96EDA6A050EDA22DF501F0B1B0A1F
:101BE000D8B412D6BF0EA925D96EDA6A050EDA224C
:101BF000DF501F0B180AD8B407D681D1BF0EA92514
:101C0000D96EDA6A050EDA22DF50E00BE00AD8A4BA
:101C100076D1BF0EA925D96EDA6A050EDA22DFA8C1
:101C2000C5D0BF0EA925D96EDA6A050EDA22DF50BB
:101C30000F0B020AD8A40FD0000E086E170E076E05
:101C4000C00EA925D96EDA6A050EDA22DF50096EB8
:101C500043EC20F02DD6BF0EA925D96EDA6A050E09
:101C6000DA22DF500F0B030AD8A40FD0000E086E43
:101C7000180E076EC00EA925D96EDA6A050EDA2293
:101C8000DF50096E43EC20F013D6BF0EA925D96EA4
:101C9000DA6A050EDA22DF500F0B040AD8A42CD022
:101CA000000E086E110E076EC00EA925D96EDA6AF5
:101CB000050EDA22DF50096E43EC20F0000E086EAC
:101CC000120E076EC10E0501A925D96EDA6A050E3E
:101CD000DA22DF50096E43EC20F0000E086E1D0E74
:101CE000076E000E066E1D0E056E37EC20F0200903
:101CF000096E43EC20F0DCD5BF0EA925D96EDA6A57
:101D0000050EDA22DF500F0B050AD8A41ED0000EF4
:101D1000086E1F0E076EC00EA925D96EDA6A050E71
:101D2000DA22DF50096E43EC20F0000E086E200E20
:101D3000076EC10E0501A925D96EDA6A050EDA22F1
:101D4000DF50096E43EC20F0B3D5BF0EA925D96E44
:101D5000DA6A050EDA22DF500F0B050AD8A414D078
:101D6000010E766FA5C577F5A6C578F5C00EA92535
:101D7000D96EDA6A050EDA22DF509B6F9B51796FBC
:101D80007A6BDBEC1FF094D5430E766FBF0EA9255E
:101D9000D96EDA6A050EDA22DF509B6F0F0E9B17A1
:101DA0009B51776F786BDBEC1FF082D5C00EA925B5
:101DB000D96EDA6A050EDA22DF509B6FBF0EA925B5
:101DC000D96EDA6A050EDA22DF50030B9C6F9B5145
:101DD000A76F9CC5A8F5A74BA82BBF0EA925D96E48
:101DE000DA6A050EDA22DF500C0B040AD8B460D58B
:101DF000BF0EA925D96EDA6A050EDA22DF500C0B68
:101E00000C0AD8A411D0A7C507F5A8C508F5C10EBE
:101E1000A925D96EDA6A050EDA22DF50096E43EC85
:101E200020F07EEC1EF044D5BF0EA925D96EDA6AEB
:101E3000050EDA22DF500C0B080AD8A439D5C10EE2
:101E4000A925D96EDA6A050EDA22DF509B6FD89089
:101E50009B33D8909B33D8909B31010BA46FC10E5C
:101E6000A925D96EDA6A050EDA22DF50070BA36FB7
:101E7000C10EA925D96EDA6A050EDA22DF509B6FF2
:101E8000F00E9B17D8B414D5A451D8B41AD0A7C556
:101E900007F5A8C508F5A3C59BF5A4C59CF59B2B24
:101EA00002D0D8909C379B2FFCD7A7C505F5A8C5B5
:101EB00006F537EC20F005019C11096E43EC20F08B
:101EC000B0D7A7C507F5A8C508F5A3C59BF5A4C558
:101ED0009CF59B2B02D0D8909C379B2FFCD70501FB
:101EE0009C51FF0A9D6FA7C505F5A8C506F537ECFF
:101EF00020F005019D15096E43EC20F092D70501F5
:101F0000A92BE151A95DD8B012001ED4610024F5BF
:101F1000D9F4610028F5DAF4DFC4F6F4150EF76E93
:101F2000F86A0800F550250AD8A43DD3610024F5CD
:101F3000D9F4610028F5DAF4DF2A000ECC6F000E28
:101F4000CB6FCBC55CF5CCC55DF5CD69CE696100C5
:101F500024F5D9F4610028F5DAF4DFC4F6F4150E9F
:101F6000F76EF86A0800F550630AD8A42CD0610017
:101F700024F5D9F4610028F5DAF4DF2A61002CF5A4
:101F8000D9F4610030F5DAF461007CF34DF5020E0E
:101F9000DE2661007CF34EF5000EDD22610034F593
:101FA000D9F4610038F5DAF4DF50686F47C50EF5F3
:101FB00048C50FF568C510F5D6EC1BF00EC547F502
:101FC0000FC548F51200610024F5D9F4610028F529
:101FD000DAF4DFC4F6F4150EF76EF86A0800F5506F
:101FE000640AD8B410D0610024F5D9F4610028F552
:101FF000DAF4DFC4F6F4150EF76EF86A0800F5504F
:10200000690AD8A447D0610024F5D9F4610028F505
:10201000DAF4DF2A61002CF5D9F4610030F5DAF446
:1020200061007CF34DF5020EDE2661007CF34EF577
:10203000000EDD22610034F5D9F4610038F5DAF4E0
:10204000610078F360F5610074F361F5000E61BF23
:10205000FF0E626F636F646F656F666F676F47C572
:1020600020F548C521F560C522F561C523F562C597
:1020700024F563C525F564C526F565C527F566C550
:1020800028F567C529F589EC15F020C547F521C568
:1020900048F51200610024F5D9F4610028F5DAF45E
:1020A000DF50036ED20E046E000E066E020E056E39
:1020B00022EC1BF003500410D8B414D0610024F5B6
:1020C000D9F4610028F5DAF4DF50036ED50E046E02
:1020D000000E066E020E056E22EC1BF0035004107B
:1020E000D8A466D0610024F5D9F4610028F5DAF4AB
:1020F000020EDF2661002CF5D9F4610030F5DAF428
:1021000061007CF34DF5040EDE2661007CF34EF594
:10211000000EDD22610034F5D9F4610038F5DAF4FF
:10212000610078F34FF5610078F350F5610078F3C2
:1021300051F5610078F352F54FC553F550C554F58C
:1021400051C555F552C556F5576A56BE576857C51D
:1021500058F557C559F557C55AF553C560F554C5D7
:1021600061F555C562F556C563F557C564F558C5A3
:1021700065F559C566F55AC567F547C520F548C5E3
:1021800021F560C522F561C523F562C524F563C557
:1021900025F564C526F565C527F566C528F567C527
:1021A00029F589EC15F020C547F521C548F5120041
:1021B000610024F5D9F4610028F5DAF4DFC4F6F4FF
:1021C000150EF76EF86A0800F550750AD8A449D0C4
:1021D000610024F5D9F4610028F5DAF4DF2A610002
:1021E0002CF5D9F4610030F5DAF461007CF34DF59B
:1021F000020EDE2661007CF34EF5000EDD2261004A
:1022000034F5D9F4610038F5DAF4610078F34FF56C
:10221000610074F350F54FC569F550C56AF50501C5
:102220006B6B6C6B6D6B6E6B6F6B706B47C520F57A
:1022300048C521F569C522F56AC523F56BC524F5A6
:102240006CC525F56DC526F56EC527F56FC528F556
:1022500070C529F5C4EC17F020C547F521C548F530
:102260001200610024F5D9F4610028F5DAF4DF509A
:10227000036ED80E046E000E066E020E056E22EC82
:102280001BF003500410D8A452D0610024F5D9F4F7
:10229000610028F5DAF4020EDF2661002CF5D9F48E
:1022A000610030F5DAF461007CF34DF5040EDE26B2
:1022B00061007CF34EF5000EDD22610034F5D9F4A7
:1022C000610038F5DAF4610078F34FF5610078F3D6
:1022D00050F5610078F351F5610078F352F54F50F5
:1022E0000501696F50506A6F51506B6F52506C6F9F
:1022F0006D6B6E6B6F6B706B47C520F548C521F534
:1023000069C522F56AC523F56BC524F56CC525F5AD
:102310006DC526F56EC527F56FC528F570C529F57D
:10232000C4EC17F020C547F521C548F5120061003F
:1023300024F5D9F4610028F5DAF4DFC4F6F4150EBB
:10234000F76EF86A0800F550780AD8B410D061002A
:1023500024F5D9F4610028F5DAF4DFC4F6F4150E9B
:10236000F76EF86A0800F550580AD8A45AD06100F0
:1023700024F5D9F4610028F5DAF4DFC4F6F4150E7B
:10238000F76EF86A08006100D4F368F5610024F57F
:10239000D9F4610028F5DAF4DF2A61002CF5D9F4CC
:1023A000610030F5DAF461007CF34DF5020EDE26B3
:1023B00061007CF34EF5000EDD22610034F5D9F4A6
:1023C000610038F5DAF4610078F34FF5610074F3D9
:1023D00050F54FC569F550C56AF505016B6B6C6B1F
:1023E0006D6B6E6B6F6B706B47C520F548C521F543
:1023F00069C522F56AC523F56BC524F56CC525F5BD
:102400006DC526F56EC527F56FC528F570C529F58C
:1024100068C52AF5ACEC16F020C547F521C548F58E
:102420001200610024F5D9F4610028F5DAF4DF50D8
:10243000036EDB0E046E000E066E020E056E22ECBD
:102440001BF003500410D8B414D0610024F5D9F463
:10245000610028F5DAF4DF50036ECF0E046E000E33
:10246000066E020E056E22EC1BF003500410D8A479
:1024700068D0610024F5D9F4610028F5DAF4DF5062
:102480004D6E010E4D26610034F5F6F4150EF76E13
:10249000F86A08006100D4F368F5610024F5D9F406
:1024A000610028F5DAF4020EDF2661002CF5D9F47C
:1024B000610030F5DAF461007CF34DF5040EDE26A0
:1024C00061007CF34EF5000EDD22610034F5D9F495
:1024D000610038F5DAF4610078F34FF5610078F3C4
:1024E00050F5610078F351F5610078F352F54F50E3
:1024F0000501696F50506A6F51506B6F52506C6F8D
:102500006D6B6E6B6F6B706B47C520F548C521F521
:1025100069C522F56AC523F56BC524F56CC525F59B
:102520006DC526F56EC527F56FC528F570C529F56B
:1025300068C52AF5ACEC16F020C547F521C548F56D
:102540001200610024F5D9F4610028F5DAF4DFC443
:10255000F6F4150EF76EF86A0800F550250AD8A4AF
:1025600016D0610024F5D9F4610028F5DAF4DF2AE9
:10257000000E066E250E056E47C507F548C508F521
:102580001DEC1DF0000E486E010E476E120061003A
:1025900024F5D9F4610028F5DAF4DF2A000E486E3C
:1025A000000E476E1200610024F5D9F4610028F591
:1025B000DAF4DFC4F6F4150EF76EF86A0800F55089
:1025C000056E066A47C507F548C508F51DEC1DF000
:1025D000610024F5D9F4610028F5DAF4DF2AD2D7B6
:1025E000000E086E010E076E030E096E43EC20F01C
:1025F000000E086E020E076E000E096E43EC20F00E
:10260000000E086E030E076E000E096E43EC20F0FC
:10261000000E086E040E076E000E096E43EC20F0EB
:10262000000E086E050E076E000E096E43EC20F0DA
:10263000000E086E060E076E000E096E43EC20F0C9
:10264000000E086E070E076EA70E096E43EC20F011
:10265000000E086E080E076E0D0E096E43EC20F09A
:10266000000E086E090E076E000E096E43EC20F096
:10267000000E086E0A0E076E000E096E43EC20F085
:10268000000E086E0B0E076E000E096E43EC20F074
:10269000000E086E0C0E076E000E096E43EC20F063
:1026A000000E086E0D0E076E000E096E43EC20F052
:1026B000000E086E0E0E076E000E096E43EC20F041
:1026C000000E086E0F0E076E000E096E43EC20F030
:1026D000000E086E100E076E000E096E43EC20F01F
:1026E000000E086E110E076E000E096E43EC20F00E
:1026F000000E086E120E076E000E096E43EC20F0FD
:10270000000E086E130E076E000E096E43EC20F0EB
:10271000000E086E150E076EFF0E096E43EC20F0DA
:10272000000E086E160E076E3F0E096E43EC20F089
:10273000000E086E170E076E000E096E43EC20F0B7
:10274000000E086E180E076E000E096E43EC20F0A6
:10275000000E086E190E076E000E096E43EC20F095
:10276000000E086E1B0E076E000E096E43EC20F083
:10277000000E086E1C0E076E000E096E43EC20F072
:10278000000E086E1D0E076E020E096E43EC20F05F
:10279000000E086E1E0E076E000E096E43EC20F050
:1027A000000E086E1F0E076E000E096E43EC20F03F
:1027B000000E086E200E076E000E096E43EC20F02E
:1027C000000E086E210E076E010E096E43EC20F01C
:1027D000000E086E220E076E020E096E43EC20F00A
:1027E000000E086E230E076E040E096E43EC20F0F7
:1027F000000E086E240E076E080E096E43EC20F0E2
:10280000000E086E250E076E100E096E43EC20F0C8
:10281000000E086E260E076E040E096E43EC20F0C3
:10282000000E086E270E076E080E096E43EC20F0AE
:10283000000E086E280E076E100E096E43EC20F095
:10284000000E086E290E076E200E096E43EC20F074
:10285000000E086E2A0E076E400E096E43EC20F043
:10286000000E086E2B0E076E100E096E43EC20F062
:10287000000E086E2C0E076E200E096E43EC20F041
:10288000000E086E2D0E076E400E096E43EC20F010
:10289000000E086E2E0E076E800E096E43EC20F0BF
:1028A000000E086E410E076E000E096E43EC20F01C
:1028B000000E086E420E076E000E096E43EC20F00B
:1028C000000E086E420E076E000E096E43EC20F0FB
:1028D000000E086E430E076E000E096E43EC20F0EA
:1028E000000E086E440E076E000E096E43EC20F0D9
:1028F000000E086E450E076E000E096E43EC20F0C8
:10290000000E086E460E076E000E096E43EC20F0B6
:10291000000E086E470E076E000E096E43EC20F0A5
:10292000000E086E480E076E000E096E43EC20F094
:10293000000E086E490E076E000E096E43EC20F083
:10294000000E086E4A0E076E000E096E43EC20F072
:10295000000E086E4B0E076E000E096E43EC20F061
:10296000000E086E4C0E076E000E096E43EC20F050
:10297000000E086E4D0E076E000E096E43EC20F03F
:10298000000E086E4E0E076E000E096E43EC20F02E
:10299000000E086E4F0E076E000E096E43EC20F01D
:1029A000000E086E500E076E000E096E43EC20F00C
:1029B000000E086E510E076E000E096E43EC20F0FB
:1029C000000E086E520E076E000E096E43EC20F0EA
:1029D000000E086E530E076E000E096E43EC20F0D9
:1029E000000E086E540E076E000E096E43EC20F0C8
:1029F000000E086E550E076E000E096E43EC20F0B7
:102A0000000E086E560E076E000E096E43EC20F0A5
:102A1000000E086E570E076E000E096E43EC20F094
:102A2000000E086E580E076E000E096E43EC20F083
:102A3000000E086E590E076E000E096E43EC20F072
:102A4000000E086E5A0E076E000E096E43EC20F061
:102A5000000E086E5B0E076E000E096E43EC20F050
:102A6000000E086E5C0E076E000E096E43EC20F03F
:102A7000000E086E5D0E076E000E096E43EC20F02E
:102A8000000E086E5E0E076E000E096E43EC20F01D
:102A9000000E086E5F0E076E000E096E43EC20F00C
:102AA000000E086E690E076E000E096E43EC20F0F2
:102AB000000E086E6A0E076E000E096E43EC20F0E1
:102AC000000E086E6B0E076E000E096E43EC20F0D0
:102AD000000E086E6C0E076E000E096E43EC20F0BF
:102AE000000E086E6D0E076E000E096E43EC20F0AE
:102AF000000E086E6E0E076E000E096E43EC20F09D
:102B0000000E086E6F0E076E000E096E43EC20F08B
:102B1000120022C53AF523C53BF524C53CF525C571
:102B20003DF526C53EF527C53FF528C540F529C525
:102B300041F541AE02D0010E01D0000E386E396A67
:102B400038503910D8B410D0411E401E3F1E3E1ED2
:102B50003D1E3C1E3B1E3A6C000E3B223C223D2299
:102B60003E223F22402241220501CEAF5C92CEBFE1
:102B700005D0CE5108E1CD05D8B005D0000E356E98
:102B8000010E346E04D0CDC534F5CEC535F5CBC5B8
:102B900036F5CCC537F538503910D8A402D05CA42E
:102BA00003D03606D8A03706000E436E1F0E426EC5
:102BB000000E06011F6F7CD04206D8A04306000E0F
:102BC0004224D96E060E4320DA6E3AC503F53BC5A2
:102BD00004F53CC505F53DC506F53EC507F53FC501
:102BE00008F540C509F541C50AF50A0E0B6E000E41
:102BF0000C6E000E0D6E000E0E6E000E0F6E000EAF
:102C0000106E000E116E000E126E3FEC19F003C52F
:102C10002AF504C52BF505C52CF506C52DF507C508
:102C20002EF508C52FF509C530F50AC531F52AC5B9
:102C300015F52CC516F528EC1FF01550300FDF6E7A
:102C40003406D8A035063606D8A037063AC503F5AF
:102C50003BC504F53CC505F53DC506F53EC507F584
:102C60003FC508F540C509F541C50AF50A0E0B6ECA
:102C7000000E0C6E000E0D6E000E0E6E000E0F6E2E
:102C8000000E106E000E116E000E126E9BEC18F00E
:102C900003C53AF504C53BF505C53CF506C53DF54C
:102CA00007C53EF508C53FF509C540F50AC541F51C
:102CB00043BE1FD0435003E14204D8A01AD03A507B
:102CC0003B103C103D103E103F1040104110D8A466
:102CD00073D735BE05D0355002E13404D8B06CD777
:102CE00037BE07D0375003E13604D8A002D05CB21B
:102CF00063D738503910D8A402D05CA418D042064B
:102D0000D8A0430638503910D8A404D0000E336E32
:102D10002B0E03D0000E336E2D0E326E000E4224A9
:102D2000D96E060E4320DA6E6100C8F4DFF420C5C8
:102D300015F521C516F5000E4224176E060E432028
:102D4000186E36C519F537C51AF523EC1CF015C5F4
:102D500020F516C521F51200CEAF5C92CEBF05D08E
:102D6000CE5108E1CD05D8B005D0000E386E010E69
:102D7000376E04D0CDC537F5CEC538F5CBC539F59E
:102D8000CCC53AF55CA804D0FE0E3926FF0E3A22D7
:102D900022C53BF523C53CF524C53DF525C53EF5CB
:102DA00026C53FF527C540F528C541F529C542F59B
:102DB000000E446E1F0E436E000E06011F6F94D06E
:102DC0004306D8A044060F0E3B14456E466A46BE25
:102DD00008D0465004E10A0E455CD8A002D0570E38
:102DE00001D0300E4524456E000E4620466EBF0EC3
:102DF0002B6EFF0E2C6E2A502D6E2E6A2B502D2618
:102E00002C502E222E5006E11A0E2D5CD8B002D086
:102E1000010E01D0000E336E346A33503410D8B432
:102E200027D09F0E2B6EFF0E2C6E200E45102D6EA0
:102E3000000E46102E6E2B502D262C502E222E507A
:102E400006E11A0E2D5CD8B002D0010E01D0000EA2
:102E5000356E366A35503610D8B40AD045C509F5F6
:102E600046C50AF5A8EC1EF009C545F50AC546F5A4
:102E7000000E4324D96E060E4420DA6E610014F56C
:102E8000DFF43706D8A038063906D8A03A063BC585
:102E90002BF53CC52CF53DC52DF53EC52EF53FC5A2
:102EA0002FF540C530F541C531F542C532F5050E67
:102EB00009D0D8903232313230322F322E322D3288
:102EC0002C322B32E82EF5D72BC53BF52CC53CF523
:102ED0002DC53DF52EC53EF52FC53FF530C540F556
:102EE00031C541F532C542F544BE20D0445004E11D
:102EF000020E435CD8A01AD03B503C103D103E104F
:102F00003F10401041104210D8A45AD738BE05D007
:102F1000385002E13704D8B053D73ABE07D03A5000
:102F200003E13904D8A002D05CB24AD75CA817D01C
:102F30004306D8A04406000E4324D96E060E442052
:102F4000DA6E6100A8F4DFF44306D8A04406000E50
:102F50004324D96E060E4420DA6E300EDF6E20C593
:102F600015F521C516F5000E4324176E060E4420F4
:102F7000186E39C519F53AC51AF523EC1CF015C5BC
:102F800020F516C521F51200CEAF5C92CEBF05D05C
:102F9000CE5108E1CD05D8B005D0000E336E010E3C
:102FA000326E04D0CDC532F5CEC533F5CBC534F580
:102FB000CCC535F522C536F523C537F524C538F51A
:102FC00025C539F526C53AF527C53BF528C53CF595
:102FD00029C53DF5000E3F6E1F0E3E6E000E060128
:102FE0001F6F76D03E06D8A03F06000E3E24D96E55
:102FF000060E3F20DA6E36C503F537C504F538C531
:1030000005F539C506F53AC507F53BC508F53CC5D4
:1030100009F53DC50AF50A0E0B6E000E0C6E000E8A
:103020000D6E000E0E6E000E0F6E000E106E000E76
:10303000116E000E126E7FEC1BF003C52AF504C55D
:103040002BF505C52CF506C52DF507C52EF508C5CC
:103050002FF509C530F50AC531F52A50300FDF6E5E
:103060003206D8A033063406D8A0350636C503F597
:1030700037C504F538C505F539C506F53AC507F570
:103080003BC508F53CC509F53DC50AF50A0E0B6EB2
:10309000000E0C6E000E0D6E000E0E6E000E0F6E0A
:1030A000000E106E000E116E000E126EBBEC1AF0C8
:1030B00003C536F504C537F505C538F506C539F538
:1030C00007C53AF508C53BF509C53CF50AC53DF508
:1030D0003E503F10D8B41AD036503710381039103F
:1030E0003A103B103C103D10D8A47CD733BE05D01D
:1030F000335002E13204D8B075D735BE07D0355011
:1031000003E13404D8A002D05CB26CD720C515F519
:1031100021C516F5000E3E24176E060E3F20186ED0
:1031200034C519F535C51AF523EC1CF015C520F585
:1031300016C521F51200000E146E12AE12D0121E2A
:10314000111E101E0F1E0E1E0D1E0C1E0B6C000EEF
:103150000C220D220E220F22102211221222010E09
:10316000146E0AAE12D00A1E091E081E071E061E85
:10317000051E041E036C000E0422052206220722EF
:10318000082209220A22010E141A21EE15F1070E57
:10319000DE6AE806FDE20B500C100D100E100F1049
:1031A000101011101210D8B446D0010E136E0AD0B0
:1031B000D8900B360C360D360E360F3610361136CB
:1031C0001236132A12AEF4D7D890153616361736A3
:1031D000183619361A361B361C360B50035C0C5049
:1031E00004580D5005580E5006580F5007581050EF
:1031F00008581150095812500A58D8A011D00B5035
:10320000035E0C50045A0D50055A0E50065A0F50CA
:10321000075A1050085A1150095A12500A5A15806C
:10322000D8901232113210320F320E320D320C326F
:103230000B32132EC9D71450D8B410D01C1E1B1E2D
:103240001A1E191E181E171E161E156C000E1622A9
:103250001722182219221A221B221C2215C503F537
:1032600016C504F517C505F518C506F519C507F502
:103270001AC508F51BC509F51CC50AF51200000E94
:10328000146E0AAE12D00A1E091E081E071E061E64
:10329000051E041E036C000E0422052206220722CE
:1032A000082209220A22010E146E12AE10D0121E3C
:1032B000111E101E0F1E0E1E0D1E0C1E0B6C000E7E
:1032C0000C220D220E220F221022112212220B504C
:1032D0000C100D100E100F10101011101210D8B489
:1032E0003CD0010E136E0AD0D8900B360C360D363A
:1032F0000E360F36103611361236132A12AEF4D7A8
:103300000B50035C0C5004580D5005580E500658D5
:103310000F500758105008581150095812500A58A9
:10332000D8A010D00B50035E0C50045A0D50055A13
:103330000E50065A0F50075A1050085A1150095A89
:1033400012500A5AD8901232113210320F320E3205
:103350000D320C320B32132ED3D71450D8B410D0F8
:103360000A1E091E081E071E061E051E041E036CEB
:10337000000E0422052206220722082209220A2220
:1033800003C503F504C504F505C505F506C506F531
:1033900007C507F508C508F509C509F50AC50AF501
:1033A0001200B3EC1FF0BF9C940E036E340E046E3B
:1033B00091EC20F0BF0E0501766FDBEC1FF09EEC68
:1033C0001FF07EEC1EF0D68EA5EC20F04FEC20F026
:1033D000ADEC20F01ED05AEC20F0E051D8B419D05A
:1033E000000EAA6F000EAB6F09D0BF0EAB25D96ED1
:1033F000DA6A050EDA22DF50AA1BAB2BE151AB5D76
:10340000D8A0F3D7AA51D8B4F0EC0AF0000E050109
:10341000E06F77EC20F00009D8B4DDD7750E050118
:10342000766FD9C577F5DAC578F5F4C579F57A6B95
:10343000E2C57BF57C6BE3C57DF57E6BACC57FF5A6
:10344000806BADC581F5826BAEC583F5846BAFC56E
:1034500085F5866BB0C587F5886BB1C589F58A6B34
:10346000B2C58BF58C6BB3C58DF58E6BB4C58FF57E
:10347000906BB5C591F5926BB6C593F5946BB7C5D6
:1034800095F5966BB8C597F5986BDBEC1FF089EC5A
:103490001DF09CD7D74BD82BCEA814D0D34BD42B10
:1034A000090EF319D8A405D0090EDE654FD0070E1A
:1034B00007D0F351D8B402D0F30745D0DF2B080E64
:1034C000F36F41D0D14BD22B090EF319D8A402D0FF
:1034D000DE2B39D0080EF319D8A417D0E051D8A4A8
:1034E00011D0B9C5BFF5BAC5C0F5BBC5C1F5BCC5DE
:1034F000C2F5BDC5C3F5BEC5C4F5DFC5E1F5010E16
:10350000E06F24D0D54BD62B21D0060EDF19D8A4DE
:1035100003D0CF4BD02B1AD0F3C501F5010E026EAC
:10352000012A02D0D8900236012EFCD7B90E05012F
:10353000DF25D96EDA6A050EDA220250DF12F35166
:10354000D8A4BAD7BBD703011E8F1200000EB96FE3
:10355000000EBA6F000EBB6F000EBC6F000EBD6F89
:10356000000EBE6F000EDF6F090EF36F000EDE6FF0
:1035700003011E8F120021EE13F1070EDE6AE8062A
:10358000FDE20B500C100D100E100F10101011104A
:103590001210D8B446D0010E1B6E0AD0D8900B364C
:1035A0000C360D360E360F361036113612361B2AF3
:1035B00012AEF4D7D89013361436153616361736A1
:1035C000183619361A360B50035C0C5004580D503F
:1035D00005580E5006580F500758105008581150F3
:1035E000095812500A58D8A011D00B50035E0C5045
:1035F000045A0D50055A0E50065A0F50075A1050D3
:10360000085A1150095A12500A5A1380D89012328F
:10361000113210320F320E320D320C320B321B2EA1
:10362000C9D713C503F514C504F515C505F516C5A9
:1036300006F517C507F518C508F519C509F51AC522
:103640000AF5120003C508F504C509F50506D8A05A
:10365000060605280DE10628D8A40AD0000E046E3F
:10366000000E036E1200082A092A0506D8A00606D5
:10367000610020F4F6F4150EF76EF86A0800F550B4
:103680000009D8B424D0610024F4F6F4150EF76EC6
:10369000F86A0800F5500009D8B419D00550061092
:1036A000D8B415D0610020F4F6F4150EF76EF86A60
:1036B00008006100D4F307F5610024F4F6F4150E58
:1036C000F76EF86A0800F5500718D8B4CCD7610037
:1036D00020F4F6F4150EF76EF86A08006100D4F3D2
:1036E00007F5610024F4F6F4150EF76EF86A080089
:1036F000F550075C036E046AD8A0040612000B5054
:103700000C100D100E100F10101011101210D8B454
:103710003CD0010E136E0AD0D8900B360C360D3605
:103720000E360F36103611361236132A12AEF4D773
:103730000B50035C0C5004580D5005580E500658A1
:103740000F500758105008581150095812500A5875
:10375000D8A010D00B50035E0C50045A0D50055ADF
:103760000E50065A0F50075A1050085A1150095A55
:1037700012500A5AD8901232113210320F320E32D1
:103780000D320C320B32132ED3D703C503F504C50B
:1037900004F505C505F506C506F507C507F508C511
:1037A00008F509C509F50AC50AF51200CB51CC1177
:1037B000D8A405D0CBC514F5CCC515F506D0FF0EA1
:1037C000CB25146EFF0ECC21156E5CA009D010C560
:1037D00005F5066A0EC507F50FC508F51DEC1DF0C9
:1037E00015AE04D0000E156E000E146E000E136E92
:1037F000000E126E0CD0000E066E200E056E0EC569
:1038000007F50FC508F51DEC1DF0124A132A1450D8
:10381000125C1350800A116E1550800A1158D8A0FE
:10382000EAD75CB009D010C505F5066A0EC507F5E4
:103830000FC508F51DEC1DF0010E12240E6E000ED2
:1038400013200F6E12005CA00AD017C50EF518C524
:103850000FF515C510F516C511F5F2EC1EF01ABEE0
:1038600005D019C51EF51AC51FF504D0000E1F6E30
:10387000000E1E6E000E1D6E000E1C6E0CD0000E93
:10388000066E200E056E15C507F516C508F51DEC6C
:103890001DF01C4A1D2A1E501C5C1D50800A1B6E08
:1038A0001F50800A1B58D8A0EAD75CB00AD017C5B1
:1038B0000EF518C50FF515C510F516C511F5F2EC86
:1038C0001EF017C503F518C504F571EC1FF01E5066
:1038D0000324156E1F500420166E1200000EBE6EDB
:1038E000000EBF6E000EC06E380EC66E200EC76E84
:1038F000000EC86E300E0401106F000E086F200E0F
:10390000006F000E096F000E016F000E116F000EA8
:10391000026F000E0A6F000E126F370E036FF00E6B
:103920000B6F13693F0E046FF00E0C6F1469040ED9
:103930000201586F060E116F040E576F100E106FB4
:10394000050E126F080E156F040E486F070E166FE6
:103950000D0E726F1200076E800E0718D8A40AD0E1
:103960000504D8A402D0000E056E055005240501FB
:10397000DC6F0ED01C0E0718D8A406D00550090D18
:103980006100CCF3DCF504D00E0E0718D8B4F6D7DE
:10399000DCC503F5046A69EC20F0ABEC20F0460EC0
:1039A0000618D8A408D0000E0501DB6F0301C15131
:1039B000FE0BC16F1200520E0618D8A41200010EA1
:1039C0000501DB6F0301C1510109C16F1200FA0E3D
:1039D000F66E3F0EF76E000EF86E01EE20F210EE5E
:1039E00020F00900F5C4EEF4E550E150FAE1620E72
:1039F000F66E410EF76E000EF86E09006100D4F30A
:103A0000F3F509006100D4F3F4F501EE00F2200EA5
:103A1000EE6AE806FDE101EEACF1390EEE6AE80669
:103A2000FDE15D6A5C6A0401080E5D6F000E5E6F69
:103A3000000E5F6F0001D1EF19F007500810D8B4E5
:103A400004D007500810D8A404D005507DEC20F015
:103A5000120020EE04F00750D9260850DA22DE507A
:103A6000DE10D8B416D020EE04F00750D926085046
:103A7000DA2210EE02F00750E1260850E222DE5072
:103A8000E65CE650800A0D6EDE50800A0D58D8B014
:103A9000120020EE02F00750D9260850DA22DE2A62
:103AA000000EDD221200000E606E020E616E000E2E
:103AB000626E6368F90E646E000E656E000E666ECF
:103AC000000E676E000E686E000E6A6E000E6B6E62
:103AD0007D0E6C6E000E6D6E7D0E6E6EB79CB79E89
:103AE00067906792AC9EAC9C000E036E000E046E55
:103AF0009BEC20F0000E036E000E046E96EC20F09E
:103B0000000E036E000E046EA0EC20F0800E696EB5
:103B10001200A40E766FC5C577F5C6C578F5C7C582
:103B200079F5C8C57AF5D7C57BF5D8C57CF5D5C577
:103B30007DF5D6C57EF5D3C57FF5D4C580F5D1C555
:103B400081F5D2C582F5DBEC1FF0000EC56F000ECB
:103B5000C66F000EC76F000EC86F000ED86F000E44
:103B6000D76F000ED66F000ED56F000ED46F000E0B
:103B7000D36F000ED26F000ED16F1200000E020143
:103B8000A56F000EA66F000EA76F000EA86F000EA7
:103B9000A96F000EAA6FB00EAB6F800EAC6F000E57
:103BA000AD6F8A0EAE6F000EAF6F000EB06F000EDD
:103BB000B16F000EB26F000EB36F000E036E000EF9
:103BC000046E87EC20F0000E036E000E046E82EC93
:103BD00020F0000E036E000E046E8CEC20F0000E40
:103BE0000501E46F1200AC51D8B409D0460EF419A7
:103BF000D8A402D0BF8804D0BF98C08E02D0BF988E
:103C0000C09EAD51D8B402D0BE8401D0BE94AE5196
:103C1000D8B402D0C08601D0C096AF51D8B402D07B
:103C2000C08401D0C094B051D8B402D0C08C01D0AF
:103C3000C09CB151D8B402D0BE8001D0BE90B25168
:103C4000D8B402D0BE821200BE921200000E030150
:103C5000D96F000EDA6F000EDB6F000EDC6F000E06
:103C6000DF6F000EE06F000EE56F000EE76F000ED5
:103C7000EC6F000EEE6F000EEF6F000EF06F000E97
:103C8000F16F000EF26F000EF46F100EF56F000E64
:103C9000F66F000EF76F000EF86F000EF96F000E52
:103CA000FA6F840EF36F120073C55BF5000ECA6FD6
:103CB000000EC96F13D071C547F572C548F55B0E8C
:103CC000496E050E4A6E74C54BF575C54CF586EC0C
:103CD0000FF047500501C9274850CA2361006CF511
:103CE000F6F4150EF76EF86A0800F5500009D8A42E
:103CF000E2D7C9C571F5CAC572F51200000E066E8D
:103D00001D0E056E37EC20F00501DD6FDDAB14D024
:103D1000000E066E110E056E37EC20F0076E000ED9
:103D2000066E120E056E37EC20F0086E0750050186
:103D3000D96F08C5DAF51200000E066E010E056E89
:103D400037EC20F0076E07500501D96FDA6B1200CF
:103D50009F0E0B6EFF0E0C6E09C50DF50AC50EF514
:103D60000B500D260C500E220E5006E11A0E0D5C63
:103D7000D8B002D0010E01D0000E0F6E106A0F50A5
:103D80001010D8B405D05F0E0914096E0A6A12002B
:103D900009C509F50AC50AF51200000ED6BE010EC6
:103DA000066E380E0001456F610010F444F06100AA
:103DB0000CF443F0610014F446F04151F80B030990
:103DC000416FD69E550E426FAA0E426F408140B1A0
:103DD000FED706B002D0D69E01D0D68EF80E0001D6
:103DE00041171200000E146E000E136E0BD012C598
:103DF00005F5066A10C507F511C508F51DEC1DF09F
:103E0000134A142A13500E24D96E14500F20DA6E60
:103E1000DF50126E1250D8B41200E9D79F0E056E13
:103E2000FF0E066E200E0310076E000E0410086EC3
:103E30000550072606500822085006E11A0E075CB6
:103E4000D8B002D0010E01D0000E036E046A120039
:103E500016BE05D0165010E11504D8B00DD015C50A
:103E600017F516C518F5171E181E174A182A17C574
:103E700015F518C516F5120015C515F516C516F574
:103E800012009F0E056EFF0E066E03C507F504C5F2
:103E900008F50550072606500822085006E11A0EBC
:103EA000075CD8B002D0010E01D0000E036E046A88
:103EB0001200BF0E056EFF0E066E03C507F504C5A2
:103EC00008F50550072606500822085006E11A0E8C
:103ED000075CD8B002D0010E01D0000E036E046A58
:103EE000120003C505F504C506F502D0034A042AED
:103EF00061000CF4D9F4610010F4DAF4DF50D8A4B6
:103F0000F5D70550035C036E06500458046E12008A
:103F1000030E206F0C0E1F6F000E216F770E1D6FAA
:103F2000000E1C6FB696AB86640E036E410E046ED7
:103F300091EC20F0D00E03011E6F1200000E066EF1
:103F4000070E056E37EC20F0A70AD8A409D0000EA2
:103F5000066E080E056E37EC20F00D0AD8B412007C
:103F6000F0EC12F01200AFEC20F01BEC20F06EEC45
:103F70001CF029EC20F026EC1EF088EC1FF04FEC32
:103F800020F0C8EC1FF0BEEC1DF053EC1DF0120049
:103F9000000EC16F010EBE6F010EBF6F140EC26F17
:103FA000000EC36F000EBC6F000EC46F020EBD6F1B
:103FB000820EC06F1200770E996F050E9A6F000E79
:103FC000716F000E726F76C573F5990E746F050EE2
:103FD000756F54EC1EF01200B6960501F151F21106
:103FE000D8B4120001D812000500FA6EF151FD6E2E
:103FF000F251FE6EFF6AFA5012000000010305073D
:10400000090B0D0F11131517191B000002040608E8
:104010000A0C0E10121416181A1C380E0001456FE7
:10402000610010F444F061000CF443F0F80E411705
:10403000408146511200000E0001636F000E646F54
:10404000000E656F000E666F000E676F000E686FE2
:104050001200600E0001AD6F000EAF6F000EB36F67
:10406000080EB16F000EB06F000EAC6F12000604A8
:10407000D8A002D0000E120005C503F506C504F550
:104080000DEC20F012000804D8B0120007C503F5AB
:1040900008C504F509C505F5CDEC1EF01200890E22
:1040A00003011B6F3C0E196F000E186FB69E800E39
:1040B0001A6F1200010E0501C527000EC623C72383
:1040C000C8231200036EB7A2FED761000CF4A3F25E
:1040D000120061000CF46DF4610010F46EF4120033
:1040E000ABA61100B6A61100ECEC1FF01100B6AEA5
:1040F00002D0010E1200000E1200046E045062EC99
:1041000020F0120003C5EDF504C5EEF5120003C55D
:10411000EFF504C5F0F5120003C5EBF504C5ECF5A9
:10412000120003C5F1F504C5F2F5120003C5E7F569
:1041300004C5E8F5120003C5E9F504C5EAF5120067
:1041400003C5E5F504C5E6F51200A8EC20F0120061
:1041500003011E8F1200698412001A8F1200D69A72
:06416000120009461200E6
:020000040020DA
:10000000FF0FFF0FFF0FFF0FFF0FFF0FFF0FFF0F80
:10001000FF0FFF0FFF0FFF0FFF0FFF0FFF0FFF0F70
:10002000FF0FFF0FFF0FFF0FFF0FFF0FFF0FFF0F60
:10003000FF0FFF0FFF0FFF0FFF0FFF0FFF0FFF0F50
:020000040030CA
:0A0000008CFFF7DF9FFFFFFFFFFFFB
:00000001FF
